{
  "contractName": "Todo",
  "abi": [
    {
      "anonymous": false,
      "inputs": [
        {
          "indexed": false,
          "internalType": "uint256",
          "name": "id",
          "type": "uint256"
        },
        {
          "indexed": false,
          "internalType": "bool",
          "name": "completed",
          "type": "bool"
        }
      ],
      "name": "TaskCompleted",
      "type": "event"
    },
    {
      "anonymous": false,
      "inputs": [
        {
          "indexed": false,
          "internalType": "uint256",
          "name": "id",
          "type": "uint256"
        },
        {
          "indexed": false,
          "internalType": "string",
          "name": "content",
          "type": "string"
        },
        {
          "indexed": false,
          "internalType": "bool",
          "name": "completed",
          "type": "bool"
        }
      ],
      "name": "TaskCreated",
      "type": "event"
    },
    {
      "anonymous": false,
      "inputs": [
        {
          "indexed": false,
          "internalType": "uint256",
          "name": "id",
          "type": "uint256"
        }
      ],
      "name": "TaskDeleted",
      "type": "event"
    },
    {
      "inputs": [
        {
          "internalType": "address",
          "name": "",
          "type": "address"
        }
      ],
      "name": "taskCount",
      "outputs": [
        {
          "internalType": "uint256",
          "name": "",
          "type": "uint256"
        }
      ],
      "stateMutability": "view",
      "type": "function",
      "constant": true
    },
    {
      "inputs": [
        {
          "internalType": "string",
          "name": "_content",
          "type": "string"
        }
      ],
      "name": "createTask",
      "outputs": [],
      "stateMutability": "nonpayable",
      "type": "function"
    },
    {
      "inputs": [
        {
          "internalType": "uint256",
          "name": "_id",
          "type": "uint256"
        }
      ],
      "name": "toggleCompleted",
      "outputs": [],
      "stateMutability": "nonpayable",
      "type": "function"
    },
    {
      "inputs": [
        {
          "internalType": "uint256",
          "name": "_id",
          "type": "uint256"
        }
      ],
      "name": "deleteTask",
      "outputs": [],
      "stateMutability": "nonpayable",
      "type": "function"
    },
    {
      "inputs": [],
      "name": "getTasks",
      "outputs": [
        {
          "components": [
            {
              "internalType": "uint256",
              "name": "id",
              "type": "uint256"
            },
            {
              "internalType": "string",
              "name": "content",
              "type": "string"
            },
            {
              "internalType": "bool",
              "name": "completed",
              "type": "bool"
            }
          ],
          "internalType": "struct Todo.Task[]",
          "name": "",
          "type": "tuple[]"
        }
      ],
      "stateMutability": "view",
      "type": "function",
      "constant": true
    }
  ],
  "bytecode": "0x608060405234801561001057600080fd5b50610fe2806100206000396000f3fe608060405234801561001057600080fd5b50600436106100575760003560e01c806304a87e381461005c578063082d1abb1461007a578063111002aa146100aa578063455f5024146100c6578063560f3192146100e2575b600080fd5b6100646100fe565b6040516100719190610c50565b60405180910390f35b610094600480360381019061008f91906109f6565b6103ac565b6040516100a19190610c92565b60405180910390f35b6100c460048036038101906100bf9190610a1f565b6103c4565b005b6100e060048036038101906100db9190610a60565b61056b565b005b6100fc60048036038101906100f79190610a60565b6106f0565b005b60606000600160003373ffffffffffffffffffffffffffffffffffffffff1673ffffffffffffffffffffffffffffffffffffffff1681526020019081526020016000205467ffffffffffffffff811115610181577f4e487b7100000000000000000000000000000000000000000000000000000000600052604160045260246000fd5b6040519080825280602002602001820160405280156101ba57816020015b6101a761085e565b81526020019060019003908161019f5790505b50905060005b600160003373ffffffffffffffffffffffffffffffffffffffff1673ffffffffffffffffffffffffffffffffffffffff168152602001908152602001600020548110156103a4576000803373ffffffffffffffffffffffffffffffffffffffff1673ffffffffffffffffffffffffffffffffffffffff168152602001908152602001600020818154811061027d577f4e487b7100000000000000000000000000000000000000000000000000000000600052603260045260246000fd5b9060005260206000209060030201604051806060016040529081600082015481526020016001820180546102b090610e65565b80601f01602080910402602001604051908101604052809291908181526020018280546102dc90610e65565b80156103295780601f106102fe57610100808354040283529160200191610329565b820191906000526020600020905b81548152906001019060200180831161030c57829003601f168201915b505050505081526020016002820160009054906101000a900460ff161515151581525050828281518110610386577f4e487b7100000000000000000000000000000000000000000000000000000000600052603260045260246000fd5b6020026020010181905250808061039c90610e97565b9150506101c0565b508091505090565b60016020528060005260406000206000915090505481565b6000600160003373ffffffffffffffffffffffffffffffffffffffff1673ffffffffffffffffffffffffffffffffffffffff1681526020019081526020016000205490506000803373ffffffffffffffffffffffffffffffffffffffff1673ffffffffffffffffffffffffffffffffffffffff16815260200190815260200160002060405180606001604052808381526020018481526020016000151581525090806001815401808255809150506001900390600052602060002090600302016000909190919091506000820151816000015560208201518160010190805190602001906104b3929190610881565b5060408201518160020160006101000a81548160ff0219169083151502179055505050600160003373ffffffffffffffffffffffffffffffffffffffff1673ffffffffffffffffffffffffffffffffffffffff168152602001908152602001600020600081548092919061052690610e97565b91905055507f05d0fb833127fc08168556d0e7ca9554fc3f6bc843b3b7d2bf1c35aea6bab6608183600060405161055f93929190610cd6565b60405180910390a15050565b600160003373ffffffffffffffffffffffffffffffffffffffff1673ffffffffffffffffffffffffffffffffffffffff1681526020019081526020016000205481106105ec576040517f08c379a00000000000000000000000000000000000000000000000000000000081526004016105e390610c72565b60405180910390fd5b60008060003373ffffffffffffffffffffffffffffffffffffffff1673ffffffffffffffffffffffffffffffffffffffff1681526020019081526020016000208281548110610664577f4e487b7100000000000000000000000000000000000000000000000000000000600052603260045260246000fd5b906000526020600020906003020190508060020160009054906101000a900460ff16158160020160006101000a81548160ff0219169083151502179055507fe21fa966ca5cd02748c0752352d18c48165e61cb55b4c29cccf924b5a95fcff1828260020160009054906101000a900460ff166040516106e4929190610cad565b60405180910390a15050565b600160003373ffffffffffffffffffffffffffffffffffffffff1673ffffffffffffffffffffffffffffffffffffffff168152602001908152602001600020548110610771576040517f08c379a000000000000000000000000000000000000000000000000000000000815260040161076890610c72565b60405180910390fd5b6000803373ffffffffffffffffffffffffffffffffffffffff1673ffffffffffffffffffffffffffffffffffffffff16815260200190815260200160002081815481106107e7577f4e487b7100000000000000000000000000000000000000000000000000000000600052603260045260246000fd5b906000526020600020906003020160008082016000905560018201600061080e9190610907565b6002820160006101000a81549060ff021916905550507fd078b251d950cc55c44340be1db732337ef4939a76e1367ee271ad2cb19c46af816040516108539190610c92565b60405180910390a150565b604051806060016040528060008152602001606081526020016000151581525090565b82805461088d90610e65565b90600052602060002090601f0160209004810192826108af57600085556108f6565b82601f106108c857805160ff19168380011785556108f6565b828001600101855582156108f6579182015b828111156108f55782518255916020019190600101906108da565b5b5090506109039190610947565b5090565b50805461091390610e65565b6000825580601f106109255750610944565b601f0160209004906000526020600020908101906109439190610947565b5b50565b5b80821115610960576000816000905550600101610948565b5090565b600061097761097284610d45565b610d14565b90508281526020810184848401111561098f57600080fd5b61099a848285610e23565b509392505050565b6000813590506109b181610f7e565b92915050565b600082601f8301126109c857600080fd5b81356109d8848260208601610964565b91505092915050565b6000813590506109f081610f95565b92915050565b600060208284031215610a0857600080fd5b6000610a16848285016109a2565b91505092915050565b600060208284031215610a3157600080fd5b600082013567ffffffffffffffff811115610a4b57600080fd5b610a57848285016109b7565b91505092915050565b600060208284031215610a7257600080fd5b6000610a80848285016109e1565b91505092915050565b6000610a958383610be2565b905092915050565b6000610aa882610d85565b610ab28185610da8565b935083602082028501610ac485610d75565b8060005b85811015610b005784840389528151610ae18582610a89565b9450610aec83610d9b565b925060208a01995050600181019050610ac8565b50829750879550505050505092915050565b610b1b81610ded565b82525050565b610b2a81610ded565b82525050565b6000610b3b82610d90565b610b458185610db9565b9350610b55818560208601610e32565b610b5e81610f6d565b840191505092915050565b6000610b7482610d90565b610b7e8185610dca565b9350610b8e818560208601610e32565b610b9781610f6d565b840191505092915050565b6000610baf601383610dca565b91507f5461736b20646f6573206e6f74206578697374000000000000000000000000006000830152602082019050919050565b6000606083016000830151610bfa6000860182610c32565b5060208301518482036020860152610c128282610b30565b9150506040830151610c276040860182610b12565b508091505092915050565b610c3b81610e19565b82525050565b610c4a81610e19565b82525050565b60006020820190508181036000830152610c6a8184610a9d565b905092915050565b60006020820190508181036000830152610c8b81610ba2565b9050919050565b6000602082019050610ca76000830184610c41565b92915050565b6000604082019050610cc26000830185610c41565b610ccf6020830184610b21565b9392505050565b6000606082019050610ceb6000830186610c41565b8181036020830152610cfd8185610b69565b9050610d0c6040830184610b21565b949350505050565b6000604051905081810181811067ffffffffffffffff82111715610d3b57610d3a610f3e565b5b8060405250919050565b600067ffffffffffffffff821115610d6057610d5f610f3e565b5b601f19601f8301169050602081019050919050565b6000819050602082019050919050565b600081519050919050565b600081519050919050565b6000602082019050919050565b600082825260208201905092915050565b600082825260208201905092915050565b600082825260208201905092915050565b6000610de682610df9565b9050919050565b60008115159050919050565b600073ffffffffffffffffffffffffffffffffffffffff82169050919050565b6000819050919050565b82818337600083830152505050565b60005b83811015610e50578082015181840152602081019050610e35565b83811115610e5f576000848401525b50505050565b60006002820490506001821680610e7d57607f821691505b60208210811415610e9157610e90610f0f565b5b50919050565b6000610ea282610e19565b91507fffffffffffffffffffffffffffffffffffffffffffffffffffffffffffffffff821415610ed557610ed4610ee0565b5b600182019050919050565b7f4e487b7100000000000000000000000000000000000000000000000000000000600052601160045260246000fd5b7f4e487b7100000000000000000000000000000000000000000000000000000000600052602260045260246000fd5b7f4e487b7100000000000000000000000000000000000000000000000000000000600052604160045260246000fd5b6000601f19601f8301169050919050565b610f8781610ddb565b8114610f9257600080fd5b50565b610f9e81610e19565b8114610fa957600080fd5b5056fea264697066735822122047bb32675c18b14f7a5044951734ccf6714e21b8be0416317f9835febc4ef32f64736f6c63430008000033",
  "immutableReferences": {},
  "source": "// SPDX-License-Identifier: MIT\r\npragma solidity ^0.8.0;\r\n\r\ncontract Todo {\r\n    struct Task {\r\n        uint256 id;\r\n        string content;\r\n        bool completed;\r\n    }\r\n\r\n    mapping(address => Task[]) private userTasks;\r\n    mapping(address => uint256) public taskCount;\r\n\r\n    event TaskCreated(uint256 id, string content, bool completed);\r\n    event TaskCompleted(uint256 id, bool completed);\r\n    event TaskDeleted(uint256 id);\r\n\r\n    function createTask(string memory _content) public {\r\n        uint256 id = taskCount[msg.sender];\r\n        userTasks[msg.sender].push(Task(id, _content, false));\r\n        taskCount[msg.sender]++;\r\n        emit TaskCreated(id, _content, false);\r\n    }\r\n\r\n    function toggleCompleted(uint256 _id) public {\r\n        require(_id < taskCount[msg.sender], \"Task does not exist\");\r\n        Task storage task = userTasks[msg.sender][_id];\r\n        task.completed = !task.completed;\r\n        emit TaskCompleted(_id, task.completed);\r\n    }\r\n\r\n    function deleteTask(uint256 _id) public {\r\n        require(_id < taskCount[msg.sender], \"Task does not exist\");\r\n        delete userTasks[msg.sender][_id];\r\n        emit TaskDeleted(_id);\r\n    }\r\n\r\n    function getTasks() public view returns (Task[] memory) {\r\n        Task[] memory tasks = new Task[](taskCount[msg.sender]);\r\n        for (uint256 i = 0; i < taskCount[msg.sender]; i++) {\r\n            tasks[i] = userTasks[msg.sender][i];\r\n        }\r\n        return tasks;\r\n    }\r\n}",
  "sourcePath": "D:\\Documents\\Swanandi Projects\\todo_blockchain.4\\blockchain-todo-dapp\\contracts\\Todo.sol",
  "compiler": {
    "name": "solc",
    "version": "0.8.0+commit.c7dfd78e.Emscripten.clang"
  },
  "schemaVersion": "3.4.16",
  "updatedAt": "2025-08-14T05:15:57.652Z",
  "networkType": "ethereum",
  "devdoc": {
    "kind": "dev",
    "methods": {},
    "version": 1
  },
  "userdoc": {
    "kind": "user",
    "methods": {},
    "version": 1
  }
}